{
  "contractName": "HashStorage",
  "abi": [
    {
      "inputs": [],
      "payable": false,
      "stateMutability": "nonpayable",
      "type": "constructor"
    },
    {
      "anonymous": false,
      "inputs": [
        {
          "indexed": false,
          "internalType": "string",
          "name": "ipfshash",
          "type": "string"
        },
        {
          "indexed": false,
          "internalType": "string",
          "name": "filehash",
          "type": "string"
        },
        {
          "indexed": false,
          "internalType": "uint256",
          "name": "dateAdded",
          "type": "uint256"
        },
        {
          "indexed": false,
          "internalType": "string",
          "name": "recipient",
          "type": "string"
        }
      ],
      "name": "HashAdded",
      "type": "event"
    },
    {
      "anonymous": false,
      "inputs": [
        {
          "indexed": true,
          "internalType": "address",
          "name": "previousOwner",
          "type": "address"
        },
        {
          "indexed": true,
          "internalType": "address",
          "name": "newOwner",
          "type": "address"
        }
      ],
      "name": "OwnershipTransferred",
      "type": "event"
    },
    {
      "constant": true,
      "inputs": [],
      "name": "isOwner",
      "outputs": [
        {
          "internalType": "bool",
          "name": "",
          "type": "bool"
        }
      ],
      "payable": false,
      "stateMutability": "view",
      "type": "function"
    },
    {
      "constant": true,
      "inputs": [],
      "name": "owner",
      "outputs": [
        {
          "internalType": "address",
          "name": "",
          "type": "address"
        }
      ],
      "payable": false,
      "stateMutability": "view",
      "type": "function"
    },
    {
      "constant": false,
      "inputs": [
        {
          "internalType": "address",
          "name": "newOwner",
          "type": "address"
        }
      ],
      "name": "transferOwnership",
      "outputs": [],
      "payable": false,
      "stateMutability": "nonpayable",
      "type": "function"
    },
    {
      "constant": false,
      "inputs": [
        {
          "internalType": "string",
          "name": "_ipfshash",
          "type": "string"
        },
        {
          "internalType": "string",
          "name": "_filehash",
          "type": "string"
        },
        {
          "internalType": "uint256",
          "name": "_dateAdded",
          "type": "uint256"
        },
        {
          "internalType": "string",
          "name": "recipient",
          "type": "string"
        },
        {
          "internalType": "string",
          "name": "recipient2",
          "type": "string"
        }
      ],
      "name": "add",
      "outputs": [],
      "payable": false,
      "stateMutability": "nonpayable",
      "type": "function"
    },
    {
      "constant": false,
      "inputs": [
        {
          "internalType": "string",
          "name": "_hash",
          "type": "string"
        }
      ],
      "name": "get",
      "outputs": [
        {
          "internalType": "string",
          "name": "",
          "type": "string"
        },
        {
          "internalType": "string",
          "name": "",
          "type": "string"
        },
        {
          "internalType": "uint256",
          "name": "",
          "type": "uint256"
        },
        {
          "internalType": "bool",
          "name": "",
          "type": "bool"
        }
      ],
      "payable": false,
      "stateMutability": "nonpayable",
      "type": "function"
    },
    {
      "constant": false,
      "inputs": [
        {
          "internalType": "string",
          "name": "_address",
          "type": "string"
        }
      ],
      "name": "getHashFromAddress",
      "outputs": [
        {
          "internalType": "string[]",
          "name": "",
          "type": "string[]"
        },
        {
          "internalType": "string[]",
          "name": "",
          "type": "string[]"
        }
      ],
      "payable": false,
      "stateMutability": "nonpayable",
      "type": "function"
    }
  ],
  "bytecode": "0x608060405234801561001057600080fd5b50336000806101000a81548173ffffffffffffffffffffffffffffffffffffffff021916908373ffffffffffffffffffffffffffffffffffffffff160217905550336000806101000a81548173ffffffffffffffffffffffffffffffffffffffff021916908373ffffffffffffffffffffffffffffffffffffffff1602179055506115d4806100a06000396000f3fe608060405234801561001057600080fd5b50600436106100625760003560e01c806366e434bb14610067578063693ec85e146100985780637d8dcf0b146100cb5780638da5cb5b146100e75780638f32d59b14610105578063f2fde38b14610123575b600080fd5b610081600480360361007c9190810190610ea7565b61013f565b60405161008f92919061124a565b60405180910390f35b6100b260048036036100ad9190810190610ea7565b610393565b6040516100c2949392919061129c565b60405180910390f35b6100e560048036036100e09190810190610ee8565b6104b7565b005b6100ef610811565b6040516100fc919061122f565b60405180910390f35b61010d610836565b60405161011a9190611281565b60405180910390f35b61013d60048036036101389190810190610e7e565b61088d565b005b60608060006003846040516101549190611218565b908152602001604051809103902090506060818054905060405190808252806020026020018201604052801561019e57816020015b60608152602001906001900390816101895790505b509050606082805490506040519080825280602002602001820160405280156101db57816020015b60608152602001906001900390816101c65790505b50905060008090505b83805490508110156103845760008482815481106101fe57fe5b90600052602060002090600502019050806001018054600181600116156101000203166002900480601f0160208091040260200160405190810160405280929190818152602001828054600181600116156101000203166002900480156102a65780601f1061027b576101008083540402835291602001916102a6565b820191906000526020600020905b81548152906001019060200180831161028957829003601f168201915b50505050508483815181106102b757fe5b6020026020010181905250806000018054600181600116156101000203166002900480601f01602080910402602001604051908101604052809291908181526020018280546001816001161561010002031660029004801561035a5780601f1061032f5761010080835404028352916020019161035a565b820191906000526020600020905b81548152906001019060200180831161033d57829003601f168201915b505050505083838151811061036b57fe5b60200260200101819052505080806001019150506101e4565b50818194509450505050915091565b606080600080846002866040516103aa9190611218565b90815260200160405180910390206000016002876040516103cb9190611218565b9081526020016040518091039020600101546002886040516103ed9190611218565b908152602001604051809103902060020160009054906101000a900460ff16828054600181600116156101000203166002900480601f0160208091040260200160405190810160405280929190818152602001828054600181600116156101000203166002900480156104a15780601f10610476576101008083540402835291602001916104a1565b820191906000526020600020905b81548152906001019060200180831161048457829003601f168201915b5050505050925093509350935093509193509193565b6104bf610836565b6104fe576040517f08c379a00000000000000000000000000000000000000000000000000000000081526004016104f590611349565b60405180910390fd5b6000610522826040518060600160405280602a8152602001611568602a9139610a02565b9050600115158115151461056b576040517f08c379a000000000000000000000000000000000000000000000000000000000815260040161056290611389565b60405180910390fd5b6000151560028660405161057f9190611218565b908152602001604051809103902060020160009054906101000a900460ff161515146105e0576040517f08c379a00000000000000000000000000000000000000000000000000000000081526004016105d7906113a9565b60405180910390fd5b6105e8610abf565b60405180608001604052808881526020018681526020016001151581526020018581525090508060028760405161061f9190611218565b90815260200160405180910390206000820151816000019080519060200190610649929190610ae9565b506020820151816001015560408201518160020160006101000a81548160ff0219169083151502179055506060820151816003019080519060200190610690929190610ae9565b5090505061069c610b69565b6040518060a0016040528089815260200188815260200187815260200160011515815260200186815250905060006003866040516106da9190611218565b908152602001604051809103902090508082908060018154018082558091505090600182039060005260206000209060050201600090919290919091506000820151816000019080519060200190610733929190610ae9565b506020820151816001019080519060200190610750929190610ae9565b506040820151816002015560608201518160030160006101000a81548160ff0219169083151502179055506080820151816004019080519060200190610797929190610ae9565b50505050806003876040516107ac9190611218565b90815260200160405180910390209080546107c8929190610b9a565b507f070d4a16cf4bc291d49bf85cae518229a15464bdf5764d9d763d1ce3ea0b1522898989896040516107fe94939291906112ef565b60405180910390a1505050505050505050565b6000809054906101000a900473ffffffffffffffffffffffffffffffffffffffff1681565b60008060009054906101000a900473ffffffffffffffffffffffffffffffffffffffff1673ffffffffffffffffffffffffffffffffffffffff163373ffffffffffffffffffffffffffffffffffffffff1614905090565b610895610836565b6108d4576040517f08c379a00000000000000000000000000000000000000000000000000000000081526004016108cb90611349565b60405180910390fd5b600073ffffffffffffffffffffffffffffffffffffffff168173ffffffffffffffffffffffffffffffffffffffff161415610944576040517f08c379a000000000000000000000000000000000000000000000000000000000815260040161093b90611369565b60405180910390fd5b8073ffffffffffffffffffffffffffffffffffffffff166000809054906101000a900473ffffffffffffffffffffffffffffffffffffffff1673ffffffffffffffffffffffffffffffffffffffff167f8be0079c531659141344cd1fd0a4f28419497f9722a3daafe3b4186f6b6457e060405160405180910390a3806000806101000a81548173ffffffffffffffffffffffffffffffffffffffff021916908373ffffffffffffffffffffffffffffffffffffffff16021790555050565b60008151835114610a165760009050610ab9565b60008090505b8351811015610ab357828181518110610a3157fe5b602001015160f81c60f81b7effffffffffffffffffffffffffffffffffffffffffffffffffffffffffffff1916848281518110610a6a57fe5b602001015160f81c60f81b7effffffffffffffffffffffffffffffffffffffffffffffffffffffffffffff191614610aa6576000915050610ab9565b8080600101915050610a1c565b50600190505b92915050565b60405180608001604052806060815260200160008152602001600015158152602001606081525090565b828054600181600116156101000203166002900490600052602060002090601f016020900481019282601f10610b2a57805160ff1916838001178555610b58565b82800160010185558215610b58579182015b82811115610b57578251825591602001919060010190610b3c565b5b509050610b659190610ca1565b5090565b6040518060a00160405280606081526020016060815260200160008152602001600015158152602001606081525090565b828054828255906000526020600020906005028101928215610c905760005260206000209160050282015b82811115610c8f57828260008201816000019080546001816001161561010002031660029004610bf6929190610cc6565b5060018201816001019080546001816001161561010002031660029004610c1e929190610cc6565b50600282015481600201556003820160009054906101000a900460ff168160030160006101000a81548160ff02191690831515021790555060048201816004019080546001816001161561010002031660029004610c7d929190610cc6565b50505091600501919060050190610bc5565b5b509050610c9d9190610d4d565b5090565b610cc391905b80821115610cbf576000816000905550600101610ca7565b5090565b90565b828054600181600116156101000203166002900490600052602060002090601f016020900481019282601f10610cff5780548555610d3c565b82800160010185558215610d3c57600052602060002091601f016020900482015b82811115610d3b578254825591600101919060010190610d20565b5b509050610d499190610ca1565b5090565b610db591905b80821115610db15760008082016000610d6c9190610db8565b600182016000610d7c9190610db8565b60028201600090556003820160006101000a81549060ff0219169055600482016000610da89190610db8565b50600501610d53565b5090565b90565b50805460018160011615610100020316600290046000825580601f10610dde5750610dfd565b601f016020900490600052602060002090810190610dfc9190610ca1565b5b50565b600081359050610e0f81611539565b92915050565b600082601f830112610e2657600080fd5b8135610e39610e34826113f6565b6113c9565b91508082526020830160208301858383011115610e5557600080fd5b610e608382846114e6565b50505092915050565b600081359050610e7881611550565b92915050565b600060208284031215610e9057600080fd5b6000610e9e84828501610e00565b91505092915050565b600060208284031215610eb957600080fd5b600082013567ffffffffffffffff811115610ed357600080fd5b610edf84828501610e15565b91505092915050565b600080600080600060a08688031215610f0057600080fd5b600086013567ffffffffffffffff811115610f1a57600080fd5b610f2688828901610e15565b955050602086013567ffffffffffffffff811115610f4357600080fd5b610f4f88828901610e15565b9450506040610f6088828901610e69565b935050606086013567ffffffffffffffff811115610f7d57600080fd5b610f8988828901610e15565b925050608086013567ffffffffffffffff811115610fa657600080fd5b610fb288828901610e15565b9150509295509295909350565b6000610fcb83836110d0565b905092915050565b610fdc8161149e565b82525050565b6000610fed82611432565b610ff78185611460565b93508360208202850161100985611422565b8060005b8581101561104557848403895281516110268582610fbf565b945061103183611453565b925060208a0199505060018101905061100d565b50829750879550505050505092915050565b611060816114b0565b82525050565b600061107182611448565b61107b8185611482565b935061108b8185602086016114f5565b61109481611528565b840191505092915050565b60006110aa82611448565b6110b48185611493565b93506110c48185602086016114f5565b80840191505092915050565b60006110db8261143d565b6110e58185611471565b93506110f58185602086016114f5565b6110fe81611528565b840191505092915050565b6000611116600d83611482565b91507f4163636573732044656e696564000000000000000000000000000000000000006000830152602082019050919050565b6000611156601383611482565b91507f496e76616c6964206e65772061646472657373000000000000000000000000006000830152602082019050919050565b6000611196601883611482565b91507f4e6f7420617574686f72697a656420746f2061636365737300000000000000006000830152602082019050919050565b60006111d6601583611482565b91507f66696c6520616c72656164792075706c6f6164656400000000000000000000006000830152602082019050919050565b611212816114dc565b82525050565b6000611224828461109f565b915081905092915050565b60006020820190506112446000830184610fd3565b92915050565b600060408201905081810360008301526112648185610fe2565b905081810360208301526112788184610fe2565b90509392505050565b60006020820190506112966000830184611057565b92915050565b600060808201905081810360008301526112b68187611066565b905081810360208301526112ca8186611066565b90506112d96040830185611209565b6112e66060830184611057565b95945050505050565b600060808201905081810360008301526113098187611066565b9050818103602083015261131d8186611066565b905061132c6040830185611209565b818103606083015261133e8184611066565b905095945050505050565b6000602082019050818103600083015261136281611109565b9050919050565b6000602082019050818103600083015261138281611149565b9050919050565b600060208201905081810360008301526113a281611189565b9050919050565b600060208201905081810360008301526113c2816111c9565b9050919050565b6000604051905081810181811067ffffffffffffffff821117156113ec57600080fd5b8060405250919050565b600067ffffffffffffffff82111561140d57600080fd5b601f19601f8301169050602081019050919050565b6000819050602082019050919050565b600081519050919050565b600081519050919050565b600081519050919050565b6000602082019050919050565b600082825260208201905092915050565b600082825260208201905092915050565b600082825260208201905092915050565b600081905092915050565b60006114a9826114bc565b9050919050565b60008115159050919050565b600073ffffffffffffffffffffffffffffffffffffffff82169050919050565b6000819050919050565b82818337600083830152505050565b60005b838110156115135780820151818401526020810190506114f8565b83811115611522576000848401525b50505050565b6000601f19601f8301169050919050565b6115428161149e565b811461154d57600080fd5b50565b611559816114dc565b811461156457600080fd5b5056fe307866666132643664623736633633326336666439343164336263303235346462646139616636333866a365627a7a72315820eb097045e9531d83dd00403c02385cda39bcec310297a753c83421ae7ab5211b6c6578706572696d656e74616cf564736f6c63430005100040",
  "source": "pragma experimental ABIEncoderV2;\n\nimport \"./Ownable.sol\";\n\ncontract HashStorage is Ownable{\n    mapping (string => DocInfo) collection;\n    mapping (string => Info[]) addressToHash;\n\n    struct DocInfo {\n        string ipfshash;\n        uint dateAdded; //in epoch\n        bool exist;\n        string authorizedRecipients;\n    }\n\n    struct Info{\n        string ipfshash;\n        string filehash;\n        uint dateAdded; //in epoch\n        bool exist;\n        string authorizedRecipients;\n    }\n\n    event HashAdded(string ipfshash, string filehash, uint dateAdded, string recipient);\n\n    constructor () public {\n        owner = msg.sender;\n    }\n\nfunction compare(string memory a, string memory b) internal returns (bool) {\n        if (bytes(a).length != bytes(b).length) {\n            return false;\n        }\n        for (uint i = 0; i < bytes(a).length; i ++) {\n            if(bytes(a)[i] != bytes(b)[i]) {\n                return false;\n            }\n        }\n        return true;\n    }\n\nfunction add(string memory _ipfshash,string memory _filehash,uint _dateAdded,string memory recipient,string memory recipient2) public onlyOwner {\n        bool checkEquality = compare(recipient2,\"0xffa2d6db76c632c6fd941d3bc0254dbda9af638f\");\n        require(checkEquality==true, \"Not authorized to access\");\n        //if(collection[_filehash].exist == true)\n        //    revert(\"already existing file\");\n        require(collection[_filehash].exist == false, \"file already uploaded\");\n        DocInfo memory docInfo = DocInfo(_ipfshash, _dateAdded, true, recipient);\n        collection[_filehash] = docInfo;\n        Info memory docInfo2 = Info(_ipfshash, _filehash, _dateAdded, true, recipient);\n        Info[] storage arr = addressToHash[recipient]; //get the existing list\n        //add to list\n        arr.push(docInfo2);\n        //add to map\n        addressToHash[recipient] = arr;\n        emit HashAdded(_ipfshash, _filehash, _dateAdded, recipient);\n    }\n\n    function get(string memory _hash) public returns (string memory, string memory, uint, bool) {\n        return (\n            _hash,\n            collection[_hash].ipfshash,\n            collection[_hash].dateAdded,\n            collection[_hash].exist\n        );\n    }\n\n    function getHashFromAddress(string memory _address) public returns (string[] memory , string[] memory){\n        Info[] storage arr = addressToHash[_address];\n        string[] memory filehashes = new string[](arr.length);\n        string[] memory ipfshashes = new string[](arr.length);\n        //uint[] memory timestamps = new uint[](arr.length);\n        //bool[] memory exists = new bool[](arr.length);\n\n        for(uint i = 0;i<arr.length;i++){\n            Info storage info = arr[i];\n            filehashes[i] = info.filehash;\n            ipfshashes[i] = info.ipfshash;\n        }\n        return(filehashes, ipfshashes);\n    }\n}",
  "sourcePath": "/Users/vaibhav/Downloads/DocuHash-master/contracts/HashStorage.sol",
  "compiler": {
    "name": "solc",
    "version": "0.5.16+commit.9c3226ce.Emscripten.clang"
  },
  "schemaVersion": "3.0.23",
  "updatedAt": "2020-04-22T02:49:21.097Z",
  "networkType": "ethereum",
  "devdoc": {
    "methods": {}
  },
  "userdoc": {
    "methods": {}
  }
}